{
    "error": null,
    "id": "go-bn",
    "result": {
        "blockhash": "1791d9278925b51187a45528fcb882f2f43be84717fcd929eb750c61108cb094",
        "blockheight": 113,
        "blocktime": 1636546244,
        "confirmations": 5,
        "hash": "c98f2b1187c569d98e32f69cff4f09c8548208b0281661742f68af3ac877b8fb",
        "hex": "0200000001c9059cca32a90834a9ea6e989446edb4282e91bba486f4512477052214b185df0000000048473044022056e7348677c69dbcba776fbe0c270116c2a3eaf0bead0c1ccdbd9c083b73a08e022062da00341e54a28bb83b28dfd772c9504f5aace3452e762dc30dff249a378c0a41feffffff0240101024010000001976a914316230517501a16e2837465ec28c157fa61cabec88ac00e1f505000000001976a914beb20631d5271a6e150231e625bccff55a58cbea88ac70000000",
        "locktime": 112,
        "size": 191,
        "time": 1636546244,
        "txid": "c98f2b1187c569d98e32f69cff4f09c8548208b0281661742f68af3ac877b8fb",
        "version": 2,
        "vin": [
            {
                "scriptSig": {
                    "asm": "3044022056e7348677c69dbcba776fbe0c270116c2a3eaf0bead0c1ccdbd9c083b73a08e022062da00341e54a28bb83b28dfd772c9504f5aace3452e762dc30dff249a378c0a[ALL|FORKID]",
                    "hex": "473044022056e7348677c69dbcba776fbe0c270116c2a3eaf0bead0c1ccdbd9c083b73a08e022062da00341e54a28bb83b28dfd772c9504f5aace3452e762dc30dff249a378c0a41"
                },
                "sequence": 4294967294,
                "txid": "df85b1142205772451f486a4bb912e28b4ed4694986eeaa93408a932ca9c05c9",
                "vout": 0
            }
        ],
        "vout": [
            {
                "n": 0,
                "scriptPubKey": {
                    "addresses": [
                        "mk252j8TtixnEkwhe9mbydAqj74rfFvTNm"
                    ],
                    "asm": "OP_DUP OP_HASH160 316230517501a16e2837465ec28c157fa61cabec OP_EQUALVERIFY OP_CHECKSIG",
                    "hex": "76a914316230517501a16e2837465ec28c157fa61cabec88ac",
                    "reqSigs": 1,
                    "type": "pubkeyhash"
                },
                "value": 48.99999808
            },
            {
                "n": 1,
                "scriptPubKey": {
                    "addresses": [
                        "mxuFwqfjvGzZXJsijy1BDKP5S9KDmhiwX7"
                    ],
                    "asm": "OP_DUP OP_HASH160 beb20631d5271a6e150231e625bccff55a58cbea OP_EQUALVERIFY OP_CHECKSIG",
                    "hex": "76a914beb20631d5271a6e150231e625bccff55a58cbea88ac",
                    "reqSigs": 1,
                    "type": "pubkeyhash"
                },
                "value": 1
            }
        ]
    }
}
